:02000000542882
:10000800FF00030E8301A3000A08A4008A017008F8
:10001800A000061B1628061B13284D200F28FE30AB
:100028008B051E28861B1E28861B1C284620182880
:10003800FE308B052008F00024088A00230E830078
:06004800FF0E7F0E09000F
:10004E0083120313F101F20126087202031D3128F7
:10005E002508710203184528F301F40100307402DB
:10006E00031D3B289B30730203184128F30A031922
:0E007E00F40A3528F10A0319F20A2B280800AB
:0E008C00831203138616F73087050715080048
:0E009A00831203138616FB30870587150800B6
:1000A8008316C03083160313860002308700DF30C2
:1000B800830583128601071488308B04F330870583
:1000C800DF308605871873280A308604CB3086050A
:1000D800B830A5000B30A6002720E130860562283D
:0200E80074287A
:02400E004A2F37
:00000001FF
