:020000003528A1
:10000800FF00030E8301A3000A08A4008A017008F8
:10001800A000061B1628061B132827200F28FE30D1
:100028008B051E28861B1E28861B1C282E20182898
:10003800FE308B052008F00024088A00230E830078
:06004800FF0E7F0E09000F
:0E004E00831203138616FB3087058715080002
:0E005C00831203138616F73087050715080078
:10006A008316C03083160313860002308700DF3000
:10007A00830583128601071488308B04F3308705C1
:10008A00DF30860587185C280A308604CB3086055F
:10009A001F30FB007130FC001E30FD00FD0B5328A1
:1000AA00FC0B5328FB0B53280000E130860543283C
:0200BA005D28BF
:02400E004A2F37
:00000001FF
